S01A000050726F796563746F315F4469676974616C322E7372656335
S11300000C9434000C9446000C9446000C94460066
S11300100C9446000C9446000C9446000C94460044
S11300200C9446000C9446000C9446000C94460034
S11300300C9446000C9446000C9446000C94460024
S11300400C9446000C9446000C9446000C94460014
S11300500C9446000C9446000C9446000C94460004
S11300600C9446000C94460011241FBECFEFD8E038
S1130070DEBFCDBF21E0A0E0B1E001C01D92A03001
S1130080B207E1F70E94B3000C94D8000C9400006E
S11300900F931F93CF938B019C01C42F87B18F7C47
S11300A087B9443079F018F4413031F023C040313D
S11300B091F04034C9F01EC0E9EBF0E080818C7F00
S11300C080831DC0E9EBF0E080818D7F8083808197
S11300D08160808314C0E9EBF0E080818E7F8083AF
S11300E08081826080830BC0E9EBF0E080818360D3
S11300F0808305C0E9EBF0E080818C7F808360E041
S113010074E284EF90E0A90198010E94B600CA014C
S1130110B90160517109810991094C2F50E09A018C
S1130120220F331F032E000C440B550B0E94B60004
S11301302093B800ECEBF0E0808184608083CF9161
S11301401F910F9108958AB18C6F8AB91BB884B13D
S1130150836084B915B841E060EA76E881E090E014
S11301600E94480008950E94A300FFCFA1E21A2E26
S1130170AA1BBB1BFD010DC0AA1FBB1FEE1FFF1F47
S1130180A217B307E407F50720F0A21BB30BE40B97
S1130190F50B661F771F881F991F1A9469F76095DE
S11301A07095809590959B01AC01BD01CF01089598
S10701B0F894FFCFED
S9030000FC
