:100000000C9434000C9451000C9451000C94510049
:100010000C9451000C9451000C9451000C9451001C
:100020000C9451000C9451000C9451000C9451000C
:100030000C9451000C9451000C9451000C945100FC
:100040000C9451000C9451000C9451000C945100EC
:100050000C9451000C9451000C9451000C945100DC
:100060000C9451000C94510011241FBECFEFD8E026
:10007000DEBFCDBF11E0A0E0B1E0E2E7FAE002C0F0
:1000800005900D92A434B107D9F721E0A4E4B1E0C2
:1000900001C01D92A634B207E1F70E9419010C9429
:1000A00037050C9400000F931F93CF938B019C0195
:1000B000C42F87B18F7C87B9443079F018F4413070
:1000C00031F023C0403191F04034C9F01EC0E9EB5B
:1000D000F0E080818C7F80831DC0E9EBF0E08081BF
:1000E0008D7F808380818160808314C0E9EBF0E0A4
:1000F00080818E7F80838081826080830BC0E9EB6A
:10010000F0E080818360808305C0E9EBF0E08081CE
:100110008C7F808360E074E284EF90E0A901980115
:100120000E942B02CA01B90160517109810991092C
:100130004C2F50E09A01220F331F032E000C440B6A
:10014000550B0E942B022093B800ECEBF0E080816D
:1001500084608083CF911F910F91089584EA8093EA
:10016000BC008091BC008823E4F79091B900987F8F
:1001700081E0983009F080E0089584EA8093BC0023
:100180008091BC008823E4F79091B900987F81E0CA
:10019000903109F080E0089584E98093BC0080915B
:1001A000BC0084FDFCCF08958093BB0084E880935D
:1001B000BC008091BC008823E4F78091B900887F5F
:1001C000883121F0883219F481E0089581E00895A2
:1001D000FC01662321F084EC8093BC0003C084E81A
:1001E0008093BC009091BC009923E4F79091B900F2
:1001F000987F662311F0903549F4662311F0983505
:1002000039F48091BB00808381E0089580E00895F7
:1002100080E00895F89441E060EA76E881E090E0BB
:100220000E94530087E60E94F9010E94D001789451
:1002300008950F931F93CF93DF93CDB7DEB7E29767
:100240000FB6F894DEBF0FBECDBF0E940A010E9418
:10025000AE00882309F477C080E60E94D4008111A3
:1002600003C00E94CC006FC082E50E94D4000E94AF
:10027000BD00811103C00E94CC0065C081E60E94D0
:10028000D400811103C00E94CC005DC060E085E411
:1002900091E00E94E8000E94CC00809145011F92ED
:1002A0008F9380E091E09F938F938E010F5F1F4F9C
:1002B0001F930F930E944D02C8010E9418020E94D2
:1002C000AE000F900F900F900F900F900F9088231B
:1002D000D1F180E80E94D400811103C00E94CC00BB
:1002E00032C082E50E94D4000E94BD00811103C08B
:1002F0000E94CC0028C081E80E94D400811103C074
:100300000E94CC0020C060E084E491E00E94E800FC
:100310000E94CC00809144011F928F9382E291E071
:100320009F938F938E010F5F1F4F1F930F930E9418
:100330004D02C8010E9418020F900F900F900F906D
:100340000F900F9084CF80E090E0E2960FB6F89483
:10035000DEBF0FBECDBFDF91CF911F910F910895EA
:1003600088E48093B8001092B900089584EA8093DD
:10037000BC008091BC008823E4F7089584E9809351
:10038000BC008091BC0084FDFCCF08958093BB002D
:1003900084E88093BC008091BC008823E4F7089532
:1003A0000E94B0010E94B60180E70E94C6018AEB5C
:1003B0000E94C6010E94BE0187E893E10197F1F710
:1003C00000C000000E94B60180E70E94C60181EED5
:1003D0000E94C60188E00E94C60180E00E94C6011A
:1003E0000E94BE0187E893E10197F1F700C0000089
:1003F00008959AB192609AB99AB19E7F9AB9109273
:10040000C000E1ECF0E0908198699083E2ECF0E0CC
:1004100090819660908390E09093C5008093C40093
:1004200008959091C00095FFFCCF8093C600089579
:100430000F931F93CF938C01C0E003C00E94110261
:10044000CF5FF801EC0FF11D80818111F7CFCF91C3
:100450001F910F910895A1E21A2EAA1BBB1BFD014B
:100460000DC0AA1FBB1FEE1FFF1FA217B307E40793
:10047000F50720F0A21BB30BE40BF50B661F771FEB
:10048000881F991F1A9469F76095709580959095CB
:100490009B01AC01BD01CF010895AEE0B0E0E3E502
:1004A000F2E00C940E050D891E8986E08C831A8378
:1004B00009838FEF9FE79E838D83AE01475E5F4F79
:1004C0006F89788DCE0101960E946F02EF81F885C9
:1004D000E00FF11F10822E96E4E00C942A05ABE0A9
:1004E000B0E0E5E7F2E00C9400056C017B018A01C5
:1004F000FC0117821682838181FFCCC1CE01019657
:100500003C01F6019381F70193FD859193FF819161
:100510007F01882309F4BAC1853239F493FD8591AE
:1005200093FF81917F01853229F4B60190E00E940A
:100530006604E7CF912C212C312CFFE1F315D8F084
:100540008B3279F038F4803279F08332A1F4232DA4
:1005500020611DC08D3261F0803369F4232D21604C
:1005600016C0832D8260382EE32DE4603E2E2AC013
:10057000F32DF8601DC037FC2DC020ED280F2A3068
:1005800040F08E32B9F436FC81C1232D2064322E26
:1005900019C036FE06C08AE0989E200D1124922EC6
:1005A00011C0EAE02E9E200D1124222EF32DF062C0
:1005B0003F2E08C08C3621F4832D8068382E02C06F
:1005C000883641F4F70193FD859193FF81917F0176
:1005D0008111B3CF982F9F7D9554933028F40C5FF1
:1005E0001F4F9FE399830DC0833631F0833771F03D
:1005F000833509F059C021C0F801808189830E5FDD
:100600001F4F88248394912C530113C02801F2E0DA
:100610004F0E511CF801A080B18036FE03C0692D39
:1006200070E002C06FEF7FEFC5010E945B044C01D8
:100630008201F32DFF773F2E16C0280122E0420EE3
:10064000511CF801A080B18036FE03C0692D70E016
:1006500002C06FEF7FEFC5010E9450044C01F32DE3
:10066000F0683F2E820133FC1BC0822D90E088167B
:100670009906B0F4B60180E290E00E9466042A94E4
:10068000F4CFF50137FC859137FE81915F01B6010A
:1006900090E00E94660421102A9421E0821A9108B9
:1006A0008114910471F7E8C0843611F0893641F560
:1006B000F80137FE07C060817181828193810C5FF0
:1006C0001F4F08C060817181072E000C880B990BA9
:1006D0000E5F1F4FF32DFF763F2E97FF09C09095B9
:1006E0008095709561957F4F8F4F9F4FF0683F2E9B
:1006F0002AE030E0A3010E94A204882E861845C09B
:10070000853731F4232D2F7EB22E2AE030E025C02C
:10071000932D997FB92E8F36C1F018F4883579F072
:10072000B5C0803719F0883721F0B0C0E92FE061FB
:10073000BE2EB4FE0DC0FB2DF460BF2E09C034FEEA
:100740000AC0292F2660B22E06C028E030E005C07E
:1007500020E130E002C020E132E0F801B7FE07C03E
:1007600060817181828193810C5F1F4F06C060811F
:10077000718180E090E00E5F1F4FA3010E94A204F0
:10078000882E8618FB2DFF773F2E36FE0DC0232DB9
:100790002E7FA22E891458F434FE0BC032FC09C0FF
:1007A000832D8E7EA82E05C0B82CA32C03C0B82C98
:1007B00001C0B92CA4FE0FC0FE01E80DF11D80811F
:1007C000803321F49A2D997EA92E09C0A2FE06C07D
:1007D000B394B39404C08A2D867809F0B394A3FC33
:1007E00011C0A0FE06C0B21488F4280C922C9B18ED
:1007F0000EC0B21460F4B60180E290E00E9466047C
:10080000B394F7CFB21418F42B1802C0982C212CF3
:10081000A4FE10C0B60180E390E00E946604A2FE30
:1008200017C0A1FC03C088E790E002C088E590E013
:10083000B6010CC08A2D867859F0A1FE02C08BE269
:1008400001C080E2A7FC8DE2B60190E00E94660440
:10085000891438F4B60180E390E00E9466049A940B
:10086000F7CF8A94F301E80DF11D8081B60190E085
:100870000E9466048110F5CF222009F442CEB60111
:1008800080E290E00E9466042A94F6CFF601868109
:10089000978102C08FEF9FEF2B96E2E10C941C052D
:1008A000FC010590615070400110D8F7809590953B
:1008B0008E0F9F1F0895FC01615070400190011040
:1008C000D8F7809590958E0F9F1F08950F931F93D3
:1008D000CF93DF93FB01238121FD03C08FEF9FEFB7
:1008E0002CC022FF16C046815781248135814217D2
:1008F000530744F4A081B1819D012F5F3F4F3183A5
:1009000020838C93268137812F5F3F4F3783268347
:1009100014C08B01EC01FB010084F185E02D0995E9
:10092000892BE1F6D80116968D919C911797019627
:1009300017969C938E931697CE01DF91CF911F91BE
:100940000F910895FA01AA27283051F1203181F141
:10095000E8946F936E7F6E5F7F4F8F4F9F4FAF4FC7
:10096000B1E03ED0B4E03CD0670F781F891F9A1FDA
:10097000A11D680F791F8A1F911DA11D6A0F711D8E
:10098000811D911DA11D20D009F468943F912AE09A
:10099000269F11243019305D3193DEF6CF01089582
:1009A000462F4770405D4193B3E00FD0C9F7F6CFB3
:1009B000462F4F70405D4A3318F0495D31FD40527B
:1009C000419302D0A9F7EACFB4E0A6959795879511
:1009D00077956795BA95C9F70097610571050895F0
:1009E0009B01AC010A2E069457954795379527959C
:1009F000BA95C9F7620F731F841F951FA01D089534
:100A00002F923F924F925F926F927F928F929F921E
:100A1000AF92BF92CF92DF92EF92FF920F931F930C
:100A2000CF93DF93CDB7DEB7CA1BDB0B0FB6F894BD
:100A3000DEBF0FBECDBF09942A88398848885F84FD
:100A40006E847D848C849B84AA84B984C884DF806E
:100A5000EE80FD800C811B81AA81B981CE0FD11D52
:100A60000FB6F894DEBF0FBECDBFED010895F89428
:020A7000FFCFB6
:100A72004461746F20726563696269646F206465A2
:100A82006C204573636C61766F20313A2025640DCA
:100A92000A004461746F20726563696269646F2041
:100AA20064656C204573636C61766F20323A202551
:040AB200640D0A00C5
:00000001FF
