S01A000050726F796563746F315F4469676974616C322E7372656335
S11300000C9434000C9451000C9451000C94510045
S11300100C9451000C9451000C9451000C94510018
S11300200C9451000C9451000C9451000C94510008
S11300300C9451000C9451000C9451000C945100F8
S11300400C9451000C9451000C9451000C945100E8
S11300500C9451000C9451000C9451000C945100D8
S11300600C9451000C94510011241FBECFEFD8E022
S1130070DEBFCDBF11E0A0E0B1E0ECE9FFE002C0DB
S113008005900D92AE35B107D9F721E0AEE5B1E0A8
S113009001C01D92A336B207E1F70E9445020C94F9
S11300A0CC070C9400000F931F93CF938B019C01FA
S11300B0C42F87B18F7C87B9443079F018F441306C
S11300C031F023C0403191F04034C9F01EC0E9EB57
S11300D0F0E080818C7F80831DC0E9EBF0E08081BB
S11300E08D7F808380818160808314C0E9EBF0E0A0
S11300F080818E7F80838081826080830BC0E9EB66
S1130100F0E080818360808305C0E9EBF0E08081CA
S11301108C7F808360E074E284EF90E0A901980111
S11301200E94C004CA01B901605171098109910991
S11301304C2F50E09A01220F331F032E000C440B66
S1130140550B0E94C0042093B800ECEBF0E08081D2
S113015084608083CF911F910F91089584EA8093E6
S1130160BC008091BC008823E4F79091B900987F8B
S113017081E0983009F080E0089584EA8093BC001F
S11301808091BC008823E4F79091B900987F81E0C6
S1130190903109F080E0089584E98093BC00809157
S11301A0BC0084FDFCCF08958093BB0084E8809359
S11301B0BC008091BC008823E4F78091B900887F5B
S11301C0883131F0883231F0803429F481E00895A7
S11301D081E0089581E00895FC01662321F084EC18
S11301E08093BC0003C084E88093BC009091BC0061
S11301F09923E4F79091B900987F662319F090351C
S113020041F402C0983539F48091BB00808381E0C9
S1130210089580E0089580E008959BB193709BB9A0
S113022095B19C7F95B99BB1282F30E0220F331FE5
S1130230220F331F292B2BB995B18295869586956C
S11302408370892B85B9089598B19E7F98B90E94CF
S11302500D0188B1826088B98FE39FE10197F1F7BE
S113026000C0000088B18D7F88B98FE39FE10197BA
S1130270F1F700C0000008958BB183708BB985B18C
S11302808C7F85B92FEF89EF90E02150804090401A
S1130290E1F700C0000080E30E9424018FE19EE4A6
S11302A00197F1F700C0000080E30E9424018FE170
S11302B09EE40197F1F700C0000080E30E9424014E
S11302C08FE39CE90197F1F700C0000088E30E94E6
S11302D024018CE00E94240181E00E94240186E034
S11302E00E942401089598B1916098B90E940D016B
S11302F088B1826088B98FE39FE10197F1F700C06C
S1130300000088B18D7F88B98FE39FE10197F1F7F1
S113031000C000000895811105C08FE7860F0E9478
S113032024010895813021F48FEB860F0E9424016B
S113033008950F931F93CF93DF938C01C0E0D0E017
S113034003C00E9473012196F801EC0FFD1F808108
S11303508111F7CFDF91CF911F910F91089581E023
S11303600E9424010895F89441E060EA76E881E06F
S113037090E00E94530087E60E9464038AB18C6F68
S11303808AB984B1836084B98BB183708BB985B128
S11303908C7F85B987B1836087B988B18C7F88B930
S11303A00E943C010E94AF01789408951F93CF935B
S11303B0DF9300D0CDB7DEB70E94AE00182F88239C
S11303C009F446C080E90E94D400182F811103C0AB
S11303D00E94CC003DC080E00E94D400182F8111FF
S11303E003C00E94CC0034C00E94BD00182F8111AC
S11303F003C00E94CC002CC081E90E94D400182FB5
S1130400811103C00E94CC0023C061E0CE0101969B
S11304100E94EC00182F811103C00E94CC0018C068
S113042060E0CE0102960E94EC00182F811103C0F7
S11304300E94CC000DC00E94CC00898190E0982FCE
S113044088272A81822B90935F0180935E0111E0BB
S1130450812F0F900F90DF91CF911F91089560919C
S11304605E0170915F01660F672F661F770B7195B0
S1130470072E000C880B990B0E94C70320E030E084
S113048040E05FE30E942B0408950F931F93CF93E2
S1130490DF93CDB7DEB7C456D1090FB6F894DEBFEB
S11304A00FBECDBF0E94B3010E94AF0181E60E943E
S11304B07C0361E080E00E948B0180E091E00E9477
S11304C0990168E080E00E948B0185E091E00E9440
S11304D099016CE080E00E948B0188E091E00E9429
S11304E099010E94AE00882309F4E0C080E60E94CE
S11304F0D400811103C00E94CC00D8C082E50E94C0
S1130500D4000E94BD00811103C00E94CC00CEC063
S113051081E60E94D400811103C00E94CC00C6C0B1
S113052060E082E691E00E94EC000E94CC008091A1
S11305306201813041F468E00E948B018DE091E01A
S11305400E94990108C068E081E00E948B0181E16A
S113055091E00E9499010E94AE00882309F4A6C08C
S113056080E80E94D400811103C00E94CC009EC088
S1130570809160010E94D400811103C00E94CC00CC
S113058095C082E50E94D4000E94BD00811103C081
S11305900E94CC008BC081E80E94D400811103C06A
S11305A00E94CC0083C060E081E691E00E94EC00F0
S11305B00E94CC0080916101813041F46EE00E9480
S11305C08B0185E191E00E94990108C06EE081E011
S11305D00E948B018EE391E00E9499018091610158
S11305E01F928F9387E191E09F938F938E010F5F0A
S11305F01F4F1F930F930E94E204C8010E948303BC
S11306000E94D6010F900F900F900F900F900F90B3
S1130610882361F186B1886086B90E942F020E9406
S1130620960370935F0160935E0161E081E00E9434
S11306308B0180915F018F9380915E018F9389E399
S113064091E09F938F930E5C1F4F1F930F930E9413
S1130650E204C8010E949901C8010E9483030F901B
S11306600F900F900F900F900F9004C080E491E0D2
S11306700E9483038FE99FE00197F1F700C0000017
S113068080915E0190915F01499720F081E0809311
S1130690600102C0109260019FEF29E688E1915049
S11306A020408040E1F700C0000003CF80E090E0EC
S11306B0CC59DF4F0FB6F894DEBF0FBECDBFDF912C
S11306C0CF911F910F9108959AB192609AB99AB1FE
S11306D09E7F9AB91092C000E1ECF0E09081986995
S11306E09083E2ECF0E090819660908390E09093A8
S11306F0C5008093C40008959091C00095FFFCCF7D
S11307008093C60008950F931F93CF938C01C0E08C
S113071003C00E947C03CF5FF801EC0FF11D8081C0
S11307208111F7CFCF911F910F9108950E940A0470
S113073088F09F5798F0B92F9927B751B0F0E1F09E
S1130740660F771F881F991F1AF0BA95C9F714C04E
S1130750B13091F00E942404B1E008950C94240473
S1130760672F782F8827B85F39F0B93FCCF3869587
S113077077956795B395D9F73EF4909580957095E4
S113078061957F4F8F4F9F4F0895E89409C097FB61
S11307903EF490958095709561957F4F8F4F9F4F54
S11307A09923A9F0F92F96E9BB279395F695879598
S11307B077956795B795F111F8CFFAF4BB0F11F45B
S11307C060FF1BC06F5F7F4F8F4F9F4F16C0882302
S11307D011F096E911C0772321F09EE8872F762F38
S11307E005C0662371F096E8862F70E060E02AF079
S11307F09A95660F771F881FDAF7880F9695879565
S113080097F9089557FD9058440F551F59F05F3FCD
S113081071F04795880F97FB991F61F09F3F79F01E
S113082087950895121613061406551FF2CF4695A0
S1130830F1DF08C0161617061806991FF1CF869522
S11308407105610508940895E894BB276627772706
S1130850CB0197F908950E943E040C94AF040E94C2
S1130860A10438F00E94A80420F0952311F00C9400
S113087098040C949E0411240C9425040E940204F0
S113088070F3959FC1F3950F50E0551F629FF001DF
S1130890729FBB27F00DB11D639FAA27F00DB11DF8
S11308A0AA1F649F6627B00DA11D661F829F222781
S11308B0B00DA11D621F739FB00DA11D621F839F08
S11308C0A00D611D221F749F3327A00D611D231FDE
S11308D0849F600D211D822F762F6A2F11249F572C
S11308E050409AF0F1F088234AF0EE0FFF1FBB1F2F
S11308F0661F771F881F91505040A9F79E3F5105EE
S113090080F00C9498040C9425045F3FE4F3983E23
S1130910D4F3869577956795B795F795E7959F5F97
S1130920C1F7FE2B880F911D9695879597F9089529
S113093097F99F6780E870E060E008959FEF80EC8E
S1130940089500240A941616170618060906089531
S113095000240A9412161306140605060895092E97
S11309600394000C11F4882352F0BB0F40F4BF2B06
S113097011F460FF04C06F5F7F4F8F4F9F4F089546
S1130980A1E21A2EAA1BBB1BFD010DC0AA1FBB1F8F
S1130990EE1FFF1FA217B307E407F50720F0A21B01
S11309A0B30BE40BF50B661F771F881F991F1A946E
S11309B069F760957095809590959B01AC01BD0198
S11309C0CF010895AEE0B0E0E8EEF4E00C94A307A4
S11309D00D891E8986E08C831A8309838FEF9FE734
S11309E09E838D83AE01475E5F4F6F89788DCE0104
S11309F001960E940405EF81F885E00FF11F108233
S1130A002E96E4E00C94BF07ABE0B0E0EAE0F5E03A
S1130A100C9495076C017B018A01FC0117821682F4
S1130A20838181FFCCC1CE0101963C01F601938103
S1130A30F70193FD859193FF81917F01882309F448
S1130A40BAC1853239F493FD859193FF81917F0179
S1130A50853229F4B60190E00E94FB06E7CF912C81
S1130A60212C312CFFE1F315D8F08B3279F038F4D6
S1130A70803279F08332A1F4232D20611DC08D32A0
S1130A8061F0803369F4232D216016C0832D8260C8
S1130A90382EE32DE4603E2E2AC0F32DF8601DC0ED
S1130AA037FC2DC020ED280F2A3040F08E32B9F4E7
S1130AB036FC81C1232D2064322E19C036FE06C0B7
S1130AC08AE0989E200D1124922E11C0EAE02E9EF9
S1130AD0200D1124222EF32DF0623F2E08C08C36F7
S1130AE021F4832D8068382E02C0883641F4F70142
S1130AF093FD859193FF81917F018111B3CF982F4D
S1130B009F7D9554933028F40C5F1F4F9FE3998386
S1130B100DC0833631F0833771F0833509F059C045
S1130B2021C0F801808189830E5F1F4F882483943C
S1130B30912C530113C02801F2E04F0E511CF8010F
S1130B40A080B18036FE03C0692D70E002C06FEF53
S1130B507FEFC5010E94F0064C018201F32DFF775F
S1130B603F2E16C0280122E0420E511CF801A0803D
S1130B70B18036FE03C0692D70E002C06FEF7FEFD5
S1130B80C5010E94E5064C01F32DF0683F2E820159
S1130B9033FC1BC0822D90E088169906B0F4B60190
S1130BA080E290E00E94FB062A94F4CFF50137FC22
S1130BB0859137FE81915F01B60190E00E94FB06AA
S1130BC021102A9421E0821A91088114910471F76A
S1130BD0E8C0843611F0893641F5F80137FE07C0C4
S1130BE060817181828193810C5F1F4F08C0608195
S1130BF07181072E000C880B990B0E5F1F4FF32D8C
S1130C00FF763F2E97FF09C090958095709561956A
S1130C107F4F8F4F9F4FF0683F2E2AE030E0A301B3
S1130C200E943707882E861845C0853731F4232D56
S1130C302F7EB22E2AE030E025C0932D997FB92E65
S1130C408F36C1F018F4883579F0B5C0803719F0C3
S1130C50883721F0B0C0E92FE061BE2EB4FE0DC08C
S1130C60FB2DF460BF2E09C034FE0AC0292F266074
S1130C70B22E06C028E030E005C020E130E002C01A
S1130C8020E132E0F801B7FE07C060817181828102
S1130C9093810C5F1F4F06C06081718180E090E0FA
S1130CA00E5F1F4FA3010E943707882E8618FB2D65
S1130CB0FF773F2E36FE0DC0232D2E7FA22E8914E2
S1130CC058F434FE0BC032FC09C0832D8E7EA82E4E
S1130CD005C0B82CA32C03C0B82C01C0B92CA4FEA9
S1130CE00FC0FE01E80DF11D8081803321F49A2D9F
S1130CF0997EA92E09C0A2FE06C0B394B39404C081
S1130D008A2D867809F0B394A3FC11C0A0FE06C016
S1130D10B21488F4280C922C9B180EC0B21460F400
S1130D20B60180E290E00E94FB06B394F7CFB214C0
S1130D3018F42B1802C0982C212CA4FE10C0B60164
S1130D4080E390E00E94FB06A2FE17C0A1FC03C052
S1130D5088E790E002C088E590E0B6010CC08A2DD7
S1130D60867859F0A1FE02C08BE201C080E2A7FCA4
S1130D708DE2B60190E00E94FB06891438F4B601B6
S1130D8080E390E00E94FB069A94F7CF8A94F301E3
S1130D90E80DF11D8081B60190E00E94FB068110F0
S1130DA0F5CF222009F442CEB60180E290E00E9401
S1130DB0FB062A94F6CFF6018681978102C08FEF55
S1130DC09FEF2B96E2E10C94B107FC010590615072
S1130DD070400110D8F7809590958E0F9F1F08954D
S1130DE0FC016150704001900110D8F780959095F6
S1130DF08E0F9F1F08950F931F93CF93DF93FB01D3
S1130E00238121FD03C08FEF9FEF2CC022FF16C06A
S1130E1046815781248135814217530744F4A081C8
S1130E20B1819D012F5F3F4F318320838C932681B5
S1130E3037812F5F3F4F3783268314C08B01EC012A
S1130E40FB010084F185E02D0995892BE1F6D80199
S1130E5016968D919C911797019617969C938E9355
S1130E601697CE01DF91CF911F910F910895FA014A
S1130E70AA27283051F1203181F1E8946F936E7FD5
S1130E806E5F7F4F8F4F9F4FAF4FB1E03ED0B4E0C6
S1130E903CD0670F781F891F9A1FA11D680F791F07
S1130EA08A1F911DA11D6A0F711D811D911DA11D18
S1130EB020D009F468943F912AE0269F1124301928
S1130EC0305D3193DEF6CF010895462F4770405DC3
S1130ED04193B3E00FD0C9F7F6CF462F4F70405D72
S1130EE04A3318F0495D31FD4052419302D0A9F7CD
S1130EF0EACFB4E0A6959795879577956795BA95C7
S1130F00C9F700976105710508959B01AC010A2E8C
S1130F1006945795479537952795BA95C9F7620F63
S1130F20731F841F951FA01D08952F923F924F9207
S1130F305F926F927F928F929F92AF92BF92CF9265
S1130F40DF92EF92FF920F931F93CF93DF93CDB76E
S1130F50DEB7CA1BDB0B0FB6F894DEBF0FBECDBFE6
S1130F6009942A88398848885F846E847D848C84B7
S1130F709B84AA84B984C884DF80EE80FD800C81C0
S1130F801B81AA81B981CE0FD11D0FB6F894DEBFA3
S10F0F900FBECDBFED010895F894FFCF13
S1130F9C54656D7000414300446F6F72004F4B5F9A
S1130FAC0044454E0041004461746F2072656369CE
S1130FBC6269646F2064656C204573636C61766F41
S1130FCC20323A2025640D0A0020252E642043008B
S1130FDC4C6563747572612064652073656E736F00
S1110FEC72204932432066616C6C6F0A00006B
S9030000FC
