:100000000C9434000C9451000C9451000C94510049
:100010000C9451000C9451000C9451000C9451001C
:100020000C9451000C9451000C9451000C9451000C
:100030000C9451000C9451000C9451000C945100FC
:100040000C9451000C9451000C9451000C945100EC
:100050000C9451000C9451000C9451000C945100DC
:100060000C9451000C94510011241FBECFEFD8E026
:10007000DEBFCDBF11E0A0E0B1E0E0E7FFE002C0ED
:1000800005900D92A43BB107D9F721E0A4EBB1E0B4
:1000900001C01D92AE3BB207E1F70E944B020C94E7
:1000A000B6070C9400000F931F93CF938B019C0114
:1000B000C42F87B18F7C87B9443079F018F4413070
:1000C00031F023C0403191F04034C9F01EC0E9EB5B
:1000D000F0E080818C7F80831DC0E9EBF0E08081BF
:1000E0008D7F808380818160808314C0E9EBF0E0A4
:1000F00080818E7F80838081826080830BC0E9EB6A
:10010000F0E080818360808305C0E9EBF0E08081CE
:100110008C7F808360E074E284EF90E0A901980115
:100120000E94AA04CA01B9016051710981099109AB
:100130004C2F50E09A01220F331F032E000C440B6A
:10014000550B0E94AA042093B800ECEBF0E08081EC
:1001500084608083CF911F910F91089584EA8093EA
:10016000BC008091BC008823E4F79091B900987F8F
:1001700081E0983009F080E0089584EA8093BC0023
:100180008091BC008823E4F79091B900987F81E0CA
:10019000903109F080E0089584E98093BC0080915B
:1001A000BC0084FDFCCF08958093BB0084E880935D
:1001B000BC008091BC008823E4F78091B900887F5F
:1001C000883121F0883219F481E0089581E00895A2
:1001D000FC01662321F084EC8093BC0003C084E81A
:1001E0008093BC009091BC009923E4F79091B900F2
:1001F000987F662311F0903549F4662311F0983505
:1002000039F48091BB00808381E0089580E00895F7
:1002100080E0089588E48093B8001092B9000E94AD
:10022000AE0080E70E94D4008AEB0E94D4000E94B6
:10023000CC002FEF83EF91E0215080409040E1F718
:1002400000C000000E94AE0080E70E94D40081EE52
:100250000E94D40088E00E94D40080E00E94D40074
:100260000E94CC002FEF89EF90E021508040904019
:10027000E1F700C000000895F89441E060EA76E8F4
:1002800081E090E00E94530087E60E9410030E94E4
:100290000A0178940895CF92DF92EF92FF920F9324
:1002A0001F93CF93DF9300D000D000D0CDB7DEB73F
:1002B0007C016B0180E091E00E942F030E94AE0060
:1002C00088E091E00E942F0380E70E94D4008FE035
:1002D00091E00E942F0382E50E94D40086E191E024
:1002E0000E942F030E94BD00811103C00E94CC0018
:1002F000C3C08DE191E00E942F0381E70E94D400EA
:1003000084E291E00E942F038CEA0E94D4008BE2E9
:1003100091E00E942F0383E30E94D40080E00E94BA
:10032000D4000E94CC0088E391E00E942F032FEFBD
:1003300087EE93E0215080409040E1F700C000003C
:100340000E94AE0081E70E94D4008FE391E00E94FA
:100350002F0300E010E018C00530110554F461E0EF
:1003600081E090E08C0F9D1F800F911F0E94E8009C
:1003700009C060E081E090E08C0F9D1F800F911F0D
:100380000E94E8000F5F1F4F063011052CF30E94FA
:10039000CC001C81612F6F70862F90E0A0E0B0E050
:1003A000BC01552744278D8190E0A0E0B0E0BA2F32
:1003B000A92F982F8827842B952BA62BB72B2E811E
:1003C000BC01CD01622B0E94AF0320E030E048E485
:1003D00053E40E943D0420E030E040E855E30E94F1
:1003E0003D0420E030E048E452E40E944203F6017C
:1003F00060837183828393836A81862F90E0A0E07B
:10040000B0E0AC01BD01032E3CE0440F551F661F58
:10041000771F3A95D1F7302D8B8190E0A0E0B0E0C6
:10042000880F991FAA1FBB1F880F991FAA1FBB1FE8
:10043000880F991FAA1FBB1F880F991FAA1FBB1FD8
:10044000842B952BA62BB72B12951F70BC01CD01C9
:10045000612B0E94AF0320E030E048EC52E40E94A0
:100460003D0420E030E040E855E30E943D04F70100
:10047000608371838283938326960FB6F894DEBFE0
:100480000FBECDBFDF91CF911F910F91FF90EF90E5
:10049000DF90CF9008950F931F93CF93DF93CDB745
:1004A000DEB7C456D1090FB6F894DEBF0FBECDBF7C
:1004B0000E943C010E94AE00882309F4A3C080E69C
:1004C0000E94D400811103C00E94CC009BC082E531
:1004D0000E94D4000E94BD00811103C00E94CC0084
:1004E00091C081E60E94D400811103C00E94CC001B
:1004F00089C060E08DEB91E00E94E8000E94CC0092
:100500008091BD011F928F9386E491E09F938F931A
:100510008E010F5F1F4F1F930F930E94CC04C801E1
:100520000E942F030E94AE000F900F900F900F902B
:100530000F900F90882309F465C080E80E94D400D2
:10054000811103C00E94CC005DC082E50E94D400EE
:100550000E94BD00811103C00E94CC0053C081E8FD
:100560000E94D400811103C00E94CC004BC060E007
:100570008CEB91E00E94E8000E94CC008091BC01CD
:100580001F928F9388E691E09F938F938E010F5F68
:100590001F4F1F930F930E94CC04C8010E942F038A
:1005A0008AE891E00E942F0364EB71E088EB91E010
:1005B0000E944B018091B7018F938091B6018F9378
:1005C0008091B5018F938091B4018F9381EA91E07E
:1005D0009F938F930E5C1F4F1F930F930E94CC0429
:1005E000C8010E942F032FEF83ED90E3215080403C
:1005F0009040E1F700C000000FB6F894DEBF0FBED8
:10060000CDBF58CF80E090E0CC59DF4F0FB6F894C3
:10061000DEBF0FBECDBFDF91CF911F910F91089527
:100620009AB192609AB99AB19E7F9AB91092C0001D
:10063000E1ECF0E0908198699083E2ECF0E0908149
:100640009660908390E09093C5008093C4000895D5
:100650009091C00095FFFCCF8093C60008950F9342
:100660001F93CF938C01C0E003C00E942803CF5F8B
:10067000F801EC0FF11D80818111F7CFCF911F910F
:100680000F9108955058BB27AA270E945A030C9433
:1006900003040E94F50338F00E94FC0320F039F4B3
:1006A0009F3F19F426F40C94F2030EF4E095E7FB57
:1006B0000C94EC03E92F0E94140458F3BA17620754
:1006C00073078407950720F079F4A6F50C94360497
:1006D0000EF4E0950B2EBA2FA02D0B01B90190015D
:1006E0000C01CA01A0011124FF27591B99F0593FA1
:1006F00050F4503E68F11A16F040A22F232F342FE9
:100700004427585FF3CF469537952795A795F04036
:100710005395C9F77EF41F16BA0B620B730B840B4B
:10072000BAF09150A1F0FF0FBB1F661F771F881F03
:10073000C2F70EC0BA0F621F731F841F48F487955B
:1007400077956795B795F7959E3F08F0B0CF93954D
:10075000880F08F09927EE0F979587950895E894EC
:1007600009C097FB3EF490958095709561957F4FF9
:100770008F4F9F4F9923A9F0F92F96E9BB279395A7
:10078000F695879577956795B795F111F8CFFAF4B7
:10079000BB0F11F460FF1BC06F5F7F4F8F4F9F4FE8
:1007A00016C0882311F096E911C0772321F09EE846
:1007B000872F762F05C0662371F096E8862F70E0AC
:1007C00060E02AF09A95660F771F881FDAF7880F86
:1007D0009695879597F9089597F99F6780E870E057
:1007E00060E008959FEF80EC089500240A941616A7
:1007F000170618060906089500240A94121613060F
:10080000140605060895092E0394000C11F488239C
:1008100052F0BB0F40F4BF2B11F460FF04C06F5FB8
:100820007F4F8F4F9F4F089557FD9058440F551F8E
:1008300059F05F3F71F04795880F97FB991F61F062
:100840009F3F79F087950895121613061406551FD9
:10085000F2CF4695F1DF08C0161617061806991F45
:10086000F1CF86957105610508940895E894BB273A
:1008700066277727CB0197F908950E9450040C94BE
:1008800003040E94F50338F00E94FC0320F0952336
:1008900011F00C94EC030C94F20311240C94370423
:1008A0000E94140470F3959FC1F3950F50E0551FFB
:1008B000629FF001729FBB27F00DB11D639FAA27B5
:1008C000F00DB11DAA1F649F6627B00DA11D661F04
:1008D000829F2227B00DA11D621F739FB00DA11D25
:1008E000621F839FA00D611D221F749F3327A00DDF
:1008F000611D231F849F600D211D822F762F6A2F7B
:1009000011249F5750409AF0F1F088234AF0EE0FDF
:10091000FF1FBB1F661F771F881F91505040A9F70C
:100920009E3F510580F00C94EC030C9437045F3F1C
:10093000E4F3983ED4F3869577956795B795F79548
:10094000E7959F5FC1F7FE2B880F911D96958795C0
:1009500097F90895A1E21A2EAA1BBB1BFD010DC039
:10096000AA1FBB1FEE1FFF1FA217B307E407F5075F
:1009700020F0A21BB30BE40BF50B661F771F881F3B
:10098000991F1A9469F760957095809590959B01D1
:10099000AC01BD01CF010895AEE0B0E0E2EDF4E0BE
:1009A0000C948D070D891E8986E08C831A83098338
:1009B0008FEF9FE79E838D83AE01475E5F4F6F8908
:1009C000788DCE0101960E94EE04EF81F885E00F4C
:1009D000F11F10822E96E4E00C94A907ABE0B0E082
:1009E000E4EFF4E00C947F076C017B018A01FC01C9
:1009F00017821682838181FFCCC1CE0101963C0112
:100A0000F6019381F70193FD859193FF81917F0119
:100A1000882309F4BAC1853239F493FD859193FF97
:100A200081917F01853229F4B60190E00E94E506AC
:100A3000E7CF912C212C312CFFE1F315D8F08B322C
:100A400079F038F4803279F08332A1F4232D2061DB
:100A50001DC08D3261F0803369F4232D216016C0F2
:100A6000832D8260382EE32DE4603E2E2AC0F32DC4
:100A7000F8601DC037FC2DC020ED280F2A3040F053
:100A80008E32B9F436FC81C1232D2064322E19C078
:100A900036FE06C08AE0989E200D1124922E11C0C9
:100AA000EAE02E9E200D1124222EF32DF0623F2E1F
:100AB00008C08C3621F4832D8068382E02C0883619
:100AC00041F4F70193FD859193FF81917F0181119D
:100AD000B3CF982F9F7D9554933028F40C5F1F4F10
:100AE0009FE399830DC0833631F0833771F08335EE
:100AF00009F059C021C0F801808189830E5F1F4F22
:100B000088248394912C530113C02801F2E04F0EE6
:100B1000511CF801A080B18036FE03C0692D70E041
:100B200002C06FEF7FEFC5010E94DA064C0182011F
:100B3000F32DFF773F2E16C0280122E0420E511CF4
:100B4000F801A080B18036FE03C0692D70E002C0BC
:100B50006FEF7FEFC5010E94CF064C01F32DF068C7
:100B60003F2E820133FC1BC0822D90E0881699062F
:100B7000B0F4B60180E290E00E94E5062A94F4CF3A
:100B8000F50137FC859137FE81915F01B60190E058
:100B90000E94E50621102A9421E0821A910881140E
:100BA000910471F7E8C0843611F0893641F5F801F7
:100BB00037FE07C060817181828193810C5F1F4F76
:100BC00008C060817181072E000C880B990B0E5FA5
:100BD0001F4FF32DFF763F2E97FF09C0909580950C
:100BE000709561957F4F8F4F9F4FF0683F2E2AE0A1
:100BF00030E0A3010E942107882E861845C0853762
:100C000031F4232D2F7EB22E2AE030E025C0932D23
:100C1000997FB92E8F36C1F018F4883579F0B5C0B8
:100C2000803719F0883721F0B0C0E92FE061BE2E7F
:100C3000B4FE0DC0FB2DF460BF2E09C034FE0AC007
:100C4000292F2660B22E06C028E030E005C020E142
:100C500030E002C020E132E0F801B7FE07C0608159
:100C60007181828193810C5F1F4F06C06081718109
:100C700080E090E00E5F1F4FA3010E942107882EA5
:100C80008618FB2DFF773F2E36FE0DC0232D2E7FBD
:100C9000A22E891458F434FE0BC032FC09C0832DF7
:100CA0008E7EA82E05C0B82CA32C03C0B82C01C082
:100CB000B92CA4FE0FC0FE01E80DF11D8081803328
:100CC00021F49A2D997EA92E09C0A2FE06C0B394E4
:100CD000B39404C08A2D867809F0B394A3FC11C0A4
:100CE000A0FE06C0B21488F4280C922C9B180EC0EB
:100CF000B21460F4B60180E290E00E94E506B3947D
:100D0000F7CFB21418F42B1802C0982C212CA4FE93
:100D100010C0B60180E390E00E94E506A2FE17C075
:100D2000A1FC03C088E790E002C088E590E0B6012E
:100D30000CC08A2D867859F0A1FE02C08BE201C05A
:100D400080E2A7FC8DE2B60190E00E94E5068914DE
:100D500038F4B60180E390E00E94E5069A94F7CF5C
:100D60008A94F301E80DF11D8081B60190E00E94A4
:100D7000E5068110F5CF222009F442CEB60180E2CB
:100D800090E00E94E5062A94F6CFF60186819781CD
:100D900002C08FEF9FEF2B96E2E10C949B07FC01C2
:100DA0000590615070400110D8F7809590958E0F96
:100DB0009F1F0895FC016150704001900110D8F709
:100DC000809590958E0F9F1F08950F931F93CF933B
:100DD000DF93FB01238121FD03C08FEF9FEF2CC028
:100DE00022FF16C04681578124813581421753075F
:100DF00044F4A081B1819D012F5F3F4F3183208357
:100E00008C93268137812F5F3F4F3783268314C011
:100E10008B01EC01FB010084F185E02D0995892B04
:100E2000E1F6D80116968D919C9117970196179629
:100E30009C938E931697CE01DF91CF911F910F91C6
:100E40000895FA01AA27283051F1203181F1E89460
:100E50006F936E7F6E5F7F4F8F4F9F4FAF4FB1E0AD
:100E60003ED0B4E03CD0670F781F891F9A1FA11DA8
:100E7000680F791F8A1F911DA11D6A0F711D811DA9
:100E8000911DA11D20D009F468943F912AE0269F6E
:100E900011243019305D3193DEF6CF010895462FCD
:100EA0004770405D4193B3E00FD0C9F7F6CF462FAE
:100EB0004F70405D4A3318F0495D31FD4052419317
:100EC00002D0A9F7EACFB4E0A695979587957795D4
:100ED0006795BA95C9F700976105710508959B015B
:100EE000AC010A2E06945795479537952795BA95E4
:100EF000C9F7620F731F841F951FA01D08952F92BD
:100F00003F924F925F926F927F928F929F92AF9299
:100F1000BF92CF92DF92EF92FF920F931F93CF93E6
:100F2000DF93CDB7DEB7CA1BDB0B0FB6F894DEBF7D
:100F30000FBECDBF09942A88398848885F846E84A3
:100F40007D848C849B84AA84B984C884DF80EE80ED
:100F5000FD800C811B81AA81B981CE0FD11D0FB6F6
:100F6000F894DEBF0FBECDBFED010895F894FFCF1A
:100F70007072657061736F005061736F2030005044
:100F800061736F2031005061736F203300506173C3
:100F90006F2034005061736F2035005061736F20F3
:100FA00074726967676572005061736F2036005014
:100FB00061736F2037004461746F207265636962EA
:100FC00069646F2064656C204573636C61766F2083
:100FD000313A2025640D0A004461746F2072656304
:100FE000696269646F2064656C204573636C617627
:100FF0006F20323A2025640D0A00496E69636961E9
:101000006E646F206C6563747572612E2E2E0D0AEE
:101010000074656D70657261747572613A20256641
:041020000D0A0000B5
:00000001FF
