S01A000050726F796563746F315F4469676974616C322E7372656335
S11300000C9434000C9446000C9446000C94460066
S11300100C9446000C9446000C9446000C94460044
S11300200C9446000C9446000C9446000C94460034
S11300300C9446000C9446000C9446000C94460024
S11300400C9446000C9446000C9446000C94460014
S11300500C9446000C9446000C9446000C94460004
S11300600C9446000C94460011241FBECFEFD8E038
S1130070DEBFCDBF21E0A0E0B1E001C01D92A230FF
S1130080B207E1F70E944E010C94D2010C940000D7
S11300900F931F93CF938B019C01C42F87B18F7C47
S11300A087B9443079F018F4413031F023C040313D
S11300B091F04034C9F01EC0E9EBF0E080818C7F00
S11300C080831DC0E9EBF0E080818D7F8083808197
S11300D08160808314C0E9EBF0E080818E7F8083AF
S11300E08081826080830BC0E9EBF0E080818360D3
S11300F0808305C0E9EBF0E080818C7F808360E041
S113010074E284EF90E0A90198010E94B001CA0151
S1130110B90160517109810991094C2F50E09A018C
S1130120220F331F032E000C440B550B0E94B00109
S11301302093B800ECEBF0E0808184608083CF9161
S11301401F910F91089584EA8093BC008091BC00B4
S11301508823E4F79091B900987F81E0983009F002
S113016080E0089584EA8093BC008091BC008823D9
S1130170E4F79091B900987F81E0903109F080E034
S1130180089584E98093BC008091BC0084FDFCCF79
S113019008958093BB0084E88093BC008091BC00E8
S11301A08823E4F78091B900887F883121F0883270
S11301B019F481E0089581E00895FC01662321F09B
S11301C084EC8093BC0003C084E88093BC009091CD
S11301D0BC009923E4F79091B900987F662311F04D
S11301E0903549F4662311F0983539F48091BB00B9
S11301F0808381E0089580E0089580E00895F89474
S11302008AB18C6F8AB91BB884B1836084B915B87C
S113021041E060EA76E881E090E00E94480078944A
S113022008959BB193709BB980FF03C09BB1946008
S11302309BB981FF03C09BB198609BB982FF03C047
S11302409BB190619BB983FF03C09BB190629BB942
S113025084FF03C09BB190649BB985FF03C09BB12D
S113026090689BB995B19C7F95B986FF03C095B101
S1130270916095B988231CF485B1826085B908958D
S113028095B1937F95B980FF03C095B1946095B9FA
S113029081FF03C085B1886085B908950E94FF007D
S11302A00E94A300882309F458C080E60E94C90074
S11302B0811103C00E94C10050C082E50E94C900A0
S11302C00E94B200811103C00E94C10046C081E6B1
S11302D00E94C900811103C00E94C1003EC060E0B9
S11302E081E091E00E94DD000E94C1000E94A30011
S11302F0882399F180E80E94C900811103C00E94FB
S1130300C1002BC082E50E94C9000E94B200811185
S113031003C00E94C10021C081E80E94C90081116C
S113032003C00E94C10019C060E080E091E00E9417
S1130330DD000E94C100809101010E9411018091A1
S113034000010E9440012FEF83ED90E32150804093
S11303509040E1F700C00000A3CF80E090E0089552
S1130360A1E21A2EAA1BBB1BFD010DC0AA1FBB1FB5
S1130370EE1FFF1FA217B307E407F50720F0A21B27
S1130380B30BE40BF50B661F771F881F991F1A9494
S113039069F760957095809590959B01AC01BD01BE
S10B03A0CF010895F894FFCF8A
S9030000FC
