:100000000C943B000C9458000C9458000C9458002D
:100010000C9458000C9458000C9458000C94580000
:100020000C9458000C9458000C9458000C945800F0
:100030000C9458000C9458000C9458000C945800E0
:100040000C9458000C9458000C9458000C945800D0
:100050000C9458000C9458000C9458000C945800C0
:100060000C94F7010C945800DC00E200E800EE006C
:10007000F400FA00000111241FBECFEFD8E0DEBF6C
:10008000CDBF11E0A0E0B1E0EAEAFCE002C00590DB
:100090000D92A432B107D9F721E0A4E2B1E001C08A
:1000A0001D92A734B207E1F70E9482010C94530617
:1000B0000C94000010927C00811106C0ECE7F0E087
:1000C00080818F7D808305C0ECE7F0E080818062D5
:1000D0008083613019F0623039F00BC0ECE7F0E05A
:1000E0008081806C808305C0ECE7F0E080818064D3
:1000F000808310927A00411106C0EAE7F0E0808127
:10010000877F808305C0EAE7F0E080818860808394
:100110002031D9F038F4243061F0283081F02230D9
:1001200061F530C02034E9F0203809F1203229F59A
:1001300012C0EAE7F0E080818260808323C0EAE7B2
:10014000F0E08081836080831DC0EAE7F0E0808179
:100150008460808317C0EAE7F0E080818560808357
:1001600011C0EAE7F0E08081866080830BC0EAE797
:10017000F0E080818760808305C0EAE7F0E080815D
:1001800087608083EAE7F0E08081806480838081FB
:10019000806880830895E82FACE7B0E08C91807F81
:1001A0008C938E2F90E0FC013197E730F10568F5D4
:1001B000EC5CFF4F0C946303ECE7F0E0808181601E
:1001C00080830895ECE7F0E0808182608083089569
:1001D000ECE7F0E08081836080830895ECE7F0E055
:1001E0008081846080830895ECE7F0E08081856001
:1001F00080830895ECE7F0E0808186608083089535
:10020000ECE7F0E0808187608083089597B19F7C60
:1002100097B9880F8093BA0085E48093BC00089555
:100220008AB18C6C8AB98BB183738BB98AB18F7D9B
:100230008AB98BB184608BB98BB1877F8BB987E624
:100240000E9444020895F89484B18F6084B915B86F
:1002500020E841E062E081E00E945A0086E00E94CE
:10026000CB0080E30E94060187E60E9444020E94C0
:10027000100178940895E4E8F0E011821082A1E87A
:10028000B0E087E08C932FEF81EE94E02150804026
:100290009040E1F700C000001C9280819181089598
:1002A000CF93C42F20E030E040E055E40E94CE021E
:1002B0000E94760290E020E030E01CC085B1807F93
:1002C00085B945B1E92FF0E0E050FF4F8081842BE4
:1002D00085B9EFEDFEE23197F1F700C00000C130C3
:1002E00021F49F5F943018F403C0915001C090E056
:1002F0002F5F3F4F2617370708F385B1807F85B9F9
:10030000CF9108950E942301809126018235E1F763
:100310008BB18F738BB90E943B0190932501809321
:1003200024012FEF33EC89E0215030408040E1F789
:1003300000C000008BB1806C8BB90E943B01EC01C6
:100340009FEF23EC39E0915020403040E1F700C0AE
:1003500000008BB180688BB98BB18F7B8BB90E9409
:100360003B018C018FEF93EC29E0815090402040BD
:10037000E1F700C000001F930F93DF93CF938091AC
:1003800025018F93809124018F9385E091E09F93C5
:100390008F9387E291E09F938F930E94690387E296
:1003A00091E00E94630280912401909125012DB774
:1003B0003EB7265F3F4F0FB6F8943EBF0FBE2DBF2E
:1003C0008D3D95408CF0C034D24074F0013D124018
:1003D0005CF041E060E070E080E89FE30E94500143
:1003E00081E08093040190CF109204018DCF1F9281
:1003F0000F920FB60F9211248F93EF93FF9380917A
:10040000B9008C7F803A89F158F48037A1F018F454
:10041000803689F02EC0803891F0803981F029C073
:10042000883BA9F018F4883A91F023C0803CB9F0D9
:10043000883CA9F01EC085EC8093BC001DC0809153
:10044000BB008093260185EC8093BC0015C0809191
:1004500004018093BB0085EC8093BC000DC0ECEBE5
:10046000F0E0108285E4808307C085EC8093BC00B7
:1004700003C085EC8093BC00FF91EF918F910F90AA
:100480000FBE0F901F9018959AB192609AB99AB1C9
:100490009E7F9AB91092C000E1ECF0E090819869DB
:1004A0009083E2ECF0E090819660908390E09093EE
:1004B000C5008093C40008959091C00095FFFCCFC3
:1004C0008093C60008950F931F93CF938C01C0E0D3
:1004D00003C00E945C02CF5FF801EC0FF11D808128
:1004E0008111F7CFCF911F910F9108950E94AD0216
:1004F00088F09F5798F0B92F9927B751B0F0E1F0E5
:10050000660F771F881F991F1AF0BA95C9F714C094
:10051000B13091F00E94C702B1E008950C94C70277
:10052000672F782F8827B85F39F0B93FCCF38695CD
:1005300077956795B395D9F73EF49095809570952A
:1005400061957F4F8F4F9F4F089557FD9058440FEF
:10055000551F59F05F3F71F04795880F97FB991F22
:1005600061F09F3F79F087950895121613061406DF
:10057000551FF2CF4695F1DF08C01616170618066C
:10058000991FF1CF86957105610508940895E89447
:10059000BB2766277727CB0197F908950E94E102D0
:1005A0000C9452030E94440338F00E944B0320F045
:1005B000952311F00C943B030C94410311240C94EB
:1005C000C8020E94A50270F3959FC1F3950F50E0F9
:1005D000551F629FF001729FBB27F00DB11D639FF5
:1005E000AA27F00DB11DAA1F649F6627B00DA11D9B
:1005F000661F829F2227B00DA11D621F739FB00D41
:10060000A11D621F839FA00D611D221F749F3327B0
:10061000A00D611D231F849F600D211D822F762F49
:100620006A2F11249F5750409AF0F1F088234AF026
:10063000EE0FFF1FBB1F661F771F881F9150504092
:10064000A9F79E3F510580F00C943B030C94C8021F
:100650005F3FE4F3983ED4F3869577956795B79519
:10066000F795E7959F5FC1F7FE2B880F911D969533
:10067000879597F9089597F99F6780E870E060E0A3
:1006800008959FEF80EC089500240A94161617062B
:1006900018060906089500240A9412161306140673
:1006A00005060895092E0394000C11F4882352F0D6
:1006B000BB0F40F4BF2B11F460FF04C06F5F7F4F8E
:1006C0008F4F9F4F0895EE0FFF1F0590F491E02D7F
:1006D0000994AEE0B0E0EFE6F3E00C942A060D8951
:1006E0001E8986E08C831A8309838FEF9FE79E83A0
:1006F0008D83AE01475E5F4F6F89788DCE01019685
:100700000E948B03EF81F885E00FF11F10822E9677
:10071000E4E00C944606ABE0B0E0E1E9F3E00C94D1
:100720001C066C017B018A01FC0117821682838101
:1007300081FFCCC1CE0101963C01F6019381F70106
:1007400093FD859193FF81917F01882309F4BAC1BC
:10075000853239F493FD859193FF81917F01853234
:1007600029F4B60190E00E948205E7CF912C212C5C
:10077000312CFFE1F315D8F08B3279F038F4803268
:1007800079F08332A1F4232D20611DC08D3261F0F8
:10079000803369F4232D216016C0832D8260382EAA
:1007A000E32DE4603E2E2AC0F32DF8601DC037FC17
:1007B0002DC020ED280F2A3040F08E32B9F436FCDF
:1007C00081C1232D2064322E19C036FE06C08AE076
:1007D000989E200D1124922E11C0EAE02E9E200D2D
:1007E0001124222EF32DF0623F2E08C08C3621F406
:1007F000832D8068382E02C0883641F4F70193FDBE
:10080000859193FF81917F018111B3CF982F9F7DB7
:100810009554933028F40C5F1F4F9FE399830DC0CC
:10082000833631F0833771F0833509F059C021C028
:10083000F801808189830E5F1F4F88248394912C57
:10084000530113C02801F2E04F0E511CF801A080A3
:10085000B18036FE03C0692D70E002C06FEF7FEFFC
:10086000C5010E9477054C018201F32DFF773F2ED1
:1008700016C0280122E0420E511CF801A080B18070
:1008800036FE03C0692D70E002C06FEF7FEFC50137
:100890000E946C054C01F32DF0683F2E820133FC61
:1008A0001BC0822D90E088169906B0F4B60180E254
:1008B00090E00E9482052A94F4CFF50137FC8591DF
:1008C00037FE81915F01B60190E00E948205211000
:1008D0002A9421E0821A91088114910471F7E8C0EA
:1008E000843611F0893641F5F80137FE07C0608182
:1008F0007181828193810C5F1F4F08C0608171817B
:10090000072E000C880B990B0E5F1F4FF32DFF76FF
:100910003F2E97FF09C090958095709561957F4F08
:100920008F4F9F4FF0683F2E2AE030E0A3010E94D6
:10093000BE05882E861845C0853731F4232D2F7EBD
:10094000B22E2AE030E025C0932D997FB92E8F3644
:10095000C1F018F4883579F0B5C0803719F08837C0
:1009600021F0B0C0E92FE061BE2EB4FE0DC0FB2D1A
:10097000F460BF2E09C034FE0AC0292F2660B22EB3
:1009800006C028E030E005C020E130E002C020E1F0
:1009900032E0F801B7FE07C06081718182819381E6
:1009A0000C5F1F4F06C06081718180E090E00E5F98
:1009B0001F4FA3010E94BE05882E8618FB2DFF77CE
:1009C0003F2E36FE0DC0232D2E7FA22E891458F403
:1009D00034FE0BC032FC09C0832D8E7EA82E05C0CC
:1009E000B82CA32C03C0B82C01C0B92CA4FE0FC096
:1009F000FE01E80DF11D8081803321F49A2D997E4E
:100A0000A92E09C0A2FE06C0B394B39404C08A2DD7
:100A1000867809F0B394A3FC11C0A0FE06C0B214FE
:100A200088F4280C922C9B180EC0B21460F4B60106
:100A300080E290E00E948205B394F7CFB21418F4DC
:100A40002B1802C0982C212CA4FE10C0B60180E304
:100A500090E00E948205A2FE17C0A1FC03C088E7B7
:100A600090E002C088E590E0B6010CC08A2D86783F
:100A700059F0A1FE02C08BE201C080E2A7FC8DE22A
:100A8000B60190E00E948205891438F4B60180E333
:100A900090E00E9482059A94F7CF8A94F301E80DC2
:100AA000F11D8081B60190E00E9482058110F5CF92
:100AB000222009F442CEB60180E290E00E94820535
:100AC0002A94F6CFF6018681978102C08FEF9FEFBF
:100AD0002B96E2E10C943806FC01059061507040C1
:100AE0000110D8F7809590958E0F9F1F0895FC01F7
:100AF0006150704001900110D8F7809590958E0F4D
:100B00009F1F08950F931F93CF93DF93FB012381C2
:100B100021FD03C08FEF9FEF2CC022FF16C046813E
:100B20005781248135814217530744F4A081B18154
:100B30009D012F5F3F4F318320838C932681378126
:100B40002F5F3F4F3783268314C08B01EC01FB01DD
:100B50000084F185E02D0995892BE1F6D8011696E0
:100B60008D919C911797019617969C938E9316974B
:100B7000CE01DF91CF911F910F910895FA01AA271D
:100B8000283051F1203181F1E8946F936E7F6E5FD0
:100B90007F4F8F4F9F4FAF4FB1E03ED0B4E03CD07E
:100BA000670F781F891F9A1FA11D680F791F8A1F61
:100BB000911DA11D6A0F711D811D911DA11D20D0C8
:100BC00009F468943F912AE0269F11243019305D82
:100BD0003193DEF6CF010895462F4770405D419373
:100BE000B3E00FD0C9F7F6CF462F4F70405D4A33C0
:100BF00018F0495D31FD4052419302D0A9F7EACF88
:100C0000B4E0A6959795879577956795BA95C9F7B6
:100C100000976105710508959B01AC010A2E0694A9
:100C20005795479537952795BA95C9F7620F731F62
:100C3000841F951FA01D08952F923F924F925F929F
:100C40006F927F928F929F92AF92BF92CF92DF92DC
:100C5000EF92FF920F931F93CF93DF93CDB7DEB741
:100C6000CA1BDB0B0FB6F894DEBF0FBECDBF0994D5
:100C70002A88398848885F846E847D848C849B842C
:100C8000AA84B984C884DF80EE80FD800C811B813A
:100C9000AA81B981CE0FD11D0FB6F894DEBF0FBE69
:0A0CA000CDBFED010895F894FFCFD9
:100CAA0003060C0901726F6A6F3A202564202056E8
:100CBA00657264653A20256409617A756C3A202563
:040CCA00640D0A00AB
:00000001FF
