:100000000C9434000C9451000C9451000C94510049
:100010000C9451000C9451000C9451000C9451001C
:100020000C9451000C9451000C9451000C9451000C
:100030000C9451000C9451000C9451000C945100FC
:100040000C9451000C9451000C9451000C945100EC
:100050000C9451000C9451000C9451000C945100DC
:100060000C947E000C94510011241FBECFEFD8E0F9
:10007000DEBFCDBF11E0A0E0B1E0EAE9F1E002C0EF
:1000800005900D92A230B107D9F721E0A2E0B1E0CE
:1000900001C01D92A330B207E1F70E9469000C94E1
:1000A000CB000C94000097B19F7C97B9880F809388
:1000B000BA0085E48093BC000895F89484B180620E
:1000C00084B985B18F7D85B980E40E94530078940E
:1000D00008950E945D0080910201823529F483B168
:1000E000806283B9109202012FEF81EE94E02150DB
:1000F00080409040E1F700C00000EDCF1F920F92CA
:100100000FB60F9211248F93EF93FF938091B90054
:100110008C7F803A89F158F48037A1F018F480364A
:1001200089F02EC0803891F0803981F029C0883B59
:10013000A9F018F4883A91F023C0803CB9F0883CCB
:10014000A9F01EC085EC8093BC001DC08091BB004F
:100150008093020185EC8093BC0015C08091000162
:100160008093BB0085EC8093BC000DC0ECEBF0E00D
:10017000108285E4808307C085EC8093BC0003C0B7
:1001800085EC8093BC00FF91EF918F910F900FBE93
:0A0190000F901F901895F894FFCF10
:02019A00020061
:00000001FF
