S01000004573636C61766F322E7372656315
S11300000C943C000C9459000C9459000C94590025
S11300100C9459000C94C3010C9459000C946F0275
S11300200C9459000C9459000C9459000C945900E8
S11300300C9459000C9459000C9459000C945900D8
S11300400C9459000C9459000C9459000C945900C8
S11300500C9459000C94EE010C9459000C94590022
S11300600C9407020C945900B30084008A00900099
S113007096009C00A200A80011241FBECFEFD8E078
S1130080DEBFCDBF11E0A0E0B1E0E2E7FFE002C0D7
S113009005900D92A838B107D9F721E0A8E8B1E09E
S11300A001C01D92AA3CB207E1F70E9441010C94E1
S11300B0B7070C9400000F9310927C00811106C0C6
S11300C0ACE7B0E08C918F7D8C9305C0ACE7B0E0D9
S11300D08C9180628C93613019F0623039F00BC0DE
S11300E0ACE7B0E08C91806C8C9305C0ACE7B0E0D9
S11300F08C9180648C9350E04830510578F5FA0176
S1130100EC5CFF4F0C94B804ECE7F0E08081816074
S1130110808329C0ECE7F0E080818260808323C083
S1130120ECE7F0E08081836080831DC0ECE7F0E0C1
S113013080818460808317C0ECE7F0E08081856073
S1130140808311C0ECE7F0E08081866080830BC07F
S1130150ECE7F0E080818760808305C0ECE7F0E0A5
S113016080818660808310927A00211106C0EAE7BC
S1130170F0E08081877F808305C0EAE7F0E080813A
S1130180886080830031D9F038F4043061F008309D
S113019081F0023061F530C00034E9F0003809F133
S11301A0003229F512C0EAE7F0E0808182608083A2
S11301B023C0EAE7F0E08081836080831DC0EAE722
S11301C0F0E080818460808317C0EAE7F0E08081FA
S11301D08560808311C0EAE7F0E0808186608083D7
S11301E00BC0EAE7F0E080818760808305C0EAE71E
S11301F0F0E0808187608083EAE7F0E08081806CB2
S113020080830F91089597B19F7C97B9880F80934D
S1130210BA0085E48093BC0008951092800082E0C7
S11302208093810008950F93F89484B1816084B918
S113023084B1826084B985B18E7F85B90E945402ED
S113024087E690E00E94AB020E940D0181EC91E0F0
S11302500E94D10200E821E040E062E081E00E94D7
S11302605B00E8E6F0E0808184608083EDE6F0E006
S113027080818460808380E40E94030178940F91DC
S113028008950E94130181E091E00E94C4022FEFBF
S113029033ED80E3215030408040E1F700C000009E
S11302A080918901823509F06BC081EC91E00E9454
S11302B05903882309F44FC081EC91E00E94600344
S11302C090938D0180938C0181EC91E00E946403F2
S11302D080938E011F928F9380918D018F938091D3
S11302E08C018F9389E291E09F938F938FE891E043
S11302F09F938F930E94CD048FE891E00E94C402E3
S113030080918C0190918D012DB73EB7285F3F4FAE
S11303100FB6F8943EBF0FBE2DBF0A9740F48AE48F
S113032091E00E94C40281E00E94630207C08AE651
S113033091E00E94C40280E00E94630281EC91E09B
S11303400E9467033FEF89E698E131508040904076
S1130350E1F700C0000081EC91E00E94E6028FE921
S11303609FE00197F1F700C0000080918801843676
S113037020F085B1816085B903C085B18E7F85B9D0
S1130380109289018DCF1F920F920FB60F921124F4
S11303902F933F934F935F936F937F938F939F9389
S11303A0AF93BF93EF93FF934A9B02C061E001C0F8
S11303B060E081EC91E00E940303FF91EF91BF9113
S11303C0AF919F918F917F916F915F914F913F91E9
S11303D02F910F900FBE0F901F9018951F920F92A0
S11303E00FB60F9211248F93EF93FF9380917900AE
S11303F080938801EAE7F0E08081806C8083FF913C
S1130400EF918F910F900FBE0F901F9018951F9230
S11304100F920FB60F9211248F93EF93FF93809155
S1130420B9008C7F803A89F158F48037A1F018F430
S1130430803689F02EC0803891F0803981F029C04F
S1130440883BA9F018F4883A91F023C0803CB9F0B5
S1130450883CA9F01EC085EC8093BC001DC080912F
S1130460BB008093890185EC8093BC0015C080910A
S11304708C018093BB0085EC8093BC000DC0ECEB39
S1130480F0E0108285E4808307C085EC8093BC0093
S113049003C085EC8093BC00FF91EF918F910F9086
S11304A00FBE0F901F9018958AB180618AB982E0BF
S11304B08093B00094E09093B10098E19093B300DE
S11304C0809370000895811104C08AE08093000134
S11304D00895813019F484E18093000108951F92F6
S11304E00F920FB60F9211242F933F938F939F93E4
S11304F080918A0190918B01019690938B01809356
S11305008A0180918A0190918B01019719F48BB132
S113051080618BB98091000190E020918A01309133
S11305208B018217930719F48BB18F7E8BB980915D
S11305308A0190918B01883C910520F010928B01E7
S113054010928A019F918F913F912F910F900FBE2E
S11305500F901F9018959C019AB192609AB99AB124
S11305609E7F9AB93093C5002093C40088E9809394
S1130570C10086E08093C20008959091C00095FF69
S1130580FCCF8093C6000895CF93DF93EC0103C0A2
S113059021960E94BD0288818111FACFDF91CF910B
S11305A00895FC018AB188608AB98AB18B7F8AB9BF
S11305B08BB1877F8BB981E0808312821182148290
S11305C0138215821782168210860895FC01858194
S11305D0811118C080818823A9F01092850010929F
S11305E084008AE08A95F1F700C08BB188608BB9EA
S11305F085E38A95F1F700008BB1877F8BB981E0A1
S1130600858310820895CF93DF93662369F0FC01FC
S11306102581213049F42091840030918500348370
S1130620238322E0258342C0611140C0FC0125815F
S11306302230E1F5EC0180918400909185002381C2
S11306403481821B930B9283818383E08583618150
S1130650728180E090E00E949B0320E030E040E063
S11306605FE30E9401040E946C039B01AFE9B6E4BE
S11306700E94BE04929582958F7089279F70892766
S11306809F838E838139914020F080E991E09F839C
S11306908E832E813F81AFEFB0E00E94BE0420E93B
S11306A031E040E050E00E9496042887DF91CF912A
S11306B00895FC01958181E0933009F080E008956C
S11306C0FC01868197810895FC0180850895FC01D1
S11306D0158221E0208308950E94E00388F09F574B
S11306E098F0B92F9927B751B0F0E1F0660F771F52
S11306F0881F991F1AF0BA95C9F714C0B13091F048
S11307000E94FA03B1E008950C94FA03672F782F3E
S11307108827B85F39F0B93FCCF38695779567950C
S1130720B395D9F73EF490958095709561957F4F78
S11307308F4F9F4F0895E89409C097FB3EF490951E
S11307408095709561957F4F8F4F9F4F9923A9F0A6
S1130750F92F96E9BB279395F69587957795679535
S1130760B795F111F8CFFAF4BB0F11F460FF1BC079
S11307706F5F7F4F8F4F9F4F16C0882311F096E90C
S113078011C0772321F09EE8872F762F05C06623BA
S113079071F096E8862F70E060E02AF09A95660F73
S11307A0771F881FDAF7880F9695879597F908952C
S11307B057FD9058440F551F59F05F3F71F047950E
S11307C0880F97FB991F61F09F3F79F087950895F3
S11307D0121613061406551FF2CF4695F1DF08C012
S11307E0161617061806991FF1CF8695710561052F
S11307F008940895E894BB2766277727CB0197F9D7
S113080008950E9414040C9485040E94770438F01F
S11308100E947E0420F0952311F00C946E040C9435
S1130820740411240C94FB030E94D80370F3959F65
S1130830C1F3950F50E0551F629FF001729FBB27D3
S1130840F00DB11D639FAA27F00DB11DAA1F649F6F
S11308506627B00DA11D661F829F2227B00DA11D22
S1130860621F739FB00DA11D621F839FA00D611DA8
S1130870221F749F3327A00D611D231F849F600DC9
S1130880211D822F762F6A2F11249F5750409AF0F2
S1130890F1F088234AF0EE0FFF1FBB1F661F771F7E
S11308A0881F91505040A9F79E3F510580F00C9449
S11308B06E040C94FB035F3FE4F3983ED4F38695F7
S11308C077956795B795F795E7959F5FC1F7FE2BE9
S11308D0880F911D9695879597F9089597F99F67C5
S11308E080E870E060E008959FEF80EC08950024B4
S11308F00A941616170618060906089500240A9481
S113090012161306140605060895092E0394000C06
S113091011F4882352F0BB0F40F4BF2B11F460FF95
S113092004C06F5F7F4F8F4F9F4F0895A1E21A2E2F
S1130930AA1BBB1BFD010DC0AA1FBB1FEE1FFF1F7F
S1130940A217B307E407F50720F0A21BB30BE40BCF
S1130950F50B661F771F881F991F1A9469F7609516
S11309607095809590959B01AC01BD01CF010895D0
S1130970EE0FFF1F0590F491E02D0994A29FB001A2
S1130980B39FC001A39F700D811D1124911DB29FBF
S1130990700D811D1124911D0895AEE0B0E0E3EDCA
S11309A0F4E00C948E070D891E8986E08C831A83EB
S11309B009838FEF9FE79E838D83AE01475E5F4F70
S11309C06F89788DCE0101960E94EF04EF81F8853E
S11309D0E00FF11F10822E96E4E00C94AA07ABE01E
S11309E0B0E0E5EFF4E00C9480076C017B018A0130
S11309F0FC0117821682838181FFCCC1CE0101964E
S1130A003C01F6019381F70193FD859193FF819158
S1130A107F01882309F4BAC1853239F493FD8591A5
S1130A2093FF81917F01853229F4B60190E00E9401
S1130A30E606E7CF912C212C312CFFE1F315D8F0F9
S1130A408B3279F038F4803279F08332A1F4232D9B
S1130A5020611DC08D3261F0803369F4232D216043
S1130A6016C0832D8260382EE32DE4603E2E2AC00A
S1130A70F32DF8601DC037FC2DC020ED280F2A305F
S1130A8040F08E32B9F436FC81C1232D2064322E1D
S1130A9019C036FE06C08AE0989E200D1124922EBD
S1130AA011C0EAE02E9E200D1124222EF32DF062B7
S1130AB03F2E08C08C3621F4832D8068382E02C066
S1130AC0883641F4F70193FD859193FF81917F016D
S1130AD08111B3CF982F9F7D9554933028F40C5FE8
S1130AE01F4F9FE399830DC0833631F0833771F034
S1130AF0833509F059C021C0F801808189830E5FD4
S1130B001F4F88248394912C530113C02801F2E0D1
S1130B104F0E511CF801A080B18036FE03C0692D30
S1130B2070E002C06FEF7FEFC5010E94DB064C014D
S1130B308201F32DFF773F2E16C0280122E0420EDA
S1130B40511CF801A080B18036FE03C0692D70E00D
S1130B5002C06FEF7FEFC5010E94D0064C01F32D58
S1130B60F0683F2E820133FC1BC0822D90E0881672
S1130B709906B0F4B60180E290E00E94E6062A9459
S1130B80F4CFF50137FC859137FE81915F01B60101
S1130B9090E00E94E60621102A9421E0821A91082E
S1130BA08114910471F7E8C0843611F0893641F557
S1130BB0F80137FE07C060817181828193810C5FE7
S1130BC01F4F08C060817181072E000C880B990BA0
S1130BD00E5F1F4FF32DFF763F2E97FF09C09095B0
S1130BE08095709561957F4F8F4F9F4FF0683F2E92
S1130BF02AE030E0A3010E942207882E861845C00F
S1130C00853731F4232D2F7EB22E2AE030E025C023
S1130C10932D997FB92E8F36C1F018F4883579F069
S1130C20B5C0803719F0883721F0B0C0E92FE061F2
S1130C30BE2EB4FE0DC0FB2DF460BF2E09C034FEE1
S1130C400AC0292F2660B22E06C028E030E005C075
S1130C5020E130E002C020E132E0F801B7FE07C035
S1130C6060817181828193810C5F1F4F06C0608116
S1130C70718180E090E00E5F1F4FA3010E94220764
S1130C80882E8618FB2DFF773F2E36FE0DC0232DB0
S1130C902E7FA22E891458F434FE0BC032FC09C0F6
S1130CA0832D8E7EA82E05C0B82CA32C03C0B82C8F
S1130CB001C0B92CA4FE0FC0FE01E80DF11D808116
S1130CC0803321F49A2D997EA92E09C0A2FE06C074
S1130CD0B394B39404C08A2D867809F0B394A3FC2A
S1130CE011C0A0FE06C0B21488F4280C922C9B18E4
S1130CF00EC0B21460F4B60180E290E00E94E606F1
S1130D00B394F7CFB21418F42B1802C0982C212CEA
S1130D10A4FE10C0B60180E390E00E94E606A2FEA5
S1130D2017C0A1FC03C088E790E002C088E590E00A
S1130D30B6010CC08A2D867859F0A1FE02C08BE260
S1130D4001C080E2A7FC8DE2B60190E00E94E606B5
S1130D50891438F4B60180E390E00E94E6069A9480
S1130D60F7CF8A94F301E80DF11D8081B60190E07C
S1130D700E94E6068110F5CF222009F442CEB60186
S1130D8080E290E00E94E6062A94F6CFF60186817E
S1130D90978102C08FEF9FEF2B96E2E10C949C07A2
S1130DA0FC010590615070400110D8F78095909532
S1130DB08E0F9F1F0895FC01615070400190011037
S1130DC0D8F7809590958E0F9F1F08950F931F93CA
S1130DD0CF93DF93FB01238121FD03C08FEF9FEFAE
S1130DE02CC022FF16C046815781248135814217C9
S1130DF0530744F4A081B1819D012F5F3F4F31839C
S1130E0020838C93268137812F5F3F4F378326833E
S1130E1014C08B01EC01FB010084F185E02D0995E0
S1130E20892BE1F6D80116968D919C91179701961E
S1130E3017969C938E931697CE01DF91CF911F91B5
S1130E400F910895FA01AA27283051F1203181F138
S1130E50E8946F936E7F6E5F7F4F8F4F9F4FAF4FBE
S1130E60B1E03ED0B4E03CD0670F781F891F9A1FD1
S1130E70A11D680F791F8A1F911DA11D6A0F711D85
S1130E80811D911DA11D20D009F468943F912AE091
S1130E90269F11243019305D3193DEF6CF01089579
S1130EA0462F4770405D4193B3E00FD0C9F7F6CFAA
S1130EB0462F4F70405D4A3318F0495D31FD405272
S1130EC0419302D0A9F7EACFB4E0A6959795879508
S1130ED077956795BA95C9F70097610571050895E7
S1130EE09B01AC010A2E0694579547953795279593
S1130EF0BA95C9F7620F731F841F951FA01D08952B
S1130F002F923F924F925F926F927F928F929F9215
S1130F10AF92BF92CF92DF92EF92FF920F931F9303
S1130F20CF93DF93CDB7DEB7CA1BDB0B0FB6F894B4
S1130F30DEBF0FBECDBF09942A88398848885F84F4
S1130F406E847D848C849B84AA84B984C884DF8065
S1130F50EE80FD800C811B81AA81B981CE0FD11D49
S1130F600FB6F894DEBF0FBECDBFED010895F8941F
S1050F70FFCFAD
S1130F720A53697374656D6120696E69636961649A
S1130F826F202D2053656E736F7220556C747261DD
S1130F92736F6E69636F0D0A0044697374616E63E3
S1130FA269613A20257520636D207C204D6170654E
S1130FB261646F3A2025750D0A004C454420454E64
S1130FC243454E4449444F202D204F626A65746F55
S1130FD2206365726361210D0A004C45442041502F
S1130FE2414741444F202D204F626A65746F206C43
S10B0FF2656A6F730D0A00002B
S9030000FC
